{
  "contractName": "BridgePolygon",
  "abi": [
    {
      "inputs": [
        {
          "internalType": "address",
          "name": "token",
          "type": "address"
        }
      ],
      "stateMutability": "nonpayable",
      "type": "constructor"
    },
    {
      "anonymous": false,
      "inputs": [
        {
          "indexed": false,
          "internalType": "address",
          "name": "user",
          "type": "address"
        },
        {
          "indexed": false,
          "internalType": "uint256",
          "name": "amount",
          "type": "uint256"
        },
        {
          "indexed": false,
          "internalType": "uint256",
          "name": "nonce",
          "type": "uint256"
        },
        {
          "indexed": false,
          "internalType": "bytes",
          "name": "signature",
          "type": "bytes"
        },
        {
          "indexed": false,
          "internalType": "bytes",
          "name": "sourceChain",
          "type": "bytes"
        },
        {
          "indexed": false,
          "internalType": "bytes",
          "name": "destinationChain",
          "type": "bytes"
        }
      ],
      "name": "DepositSuccess",
      "type": "event"
    },
    {
      "anonymous": false,
      "inputs": [
        {
          "indexed": false,
          "internalType": "address",
          "name": "user",
          "type": "address"
        },
        {
          "indexed": false,
          "internalType": "uint256",
          "name": "amount",
          "type": "uint256"
        },
        {
          "indexed": false,
          "internalType": "uint256",
          "name": "nonce",
          "type": "uint256"
        },
        {
          "indexed": false,
          "internalType": "bytes",
          "name": "signature",
          "type": "bytes"
        },
        {
          "indexed": false,
          "internalType": "bytes",
          "name": "sourceChain",
          "type": "bytes"
        },
        {
          "indexed": false,
          "internalType": "bytes",
          "name": "destinationChain",
          "type": "bytes"
        }
      ],
      "name": "WithdrawSuccess",
      "type": "event"
    },
    {
      "inputs": [
        {
          "internalType": "address",
          "name": "user",
          "type": "address"
        },
        {
          "internalType": "uint256",
          "name": "amount",
          "type": "uint256"
        },
        {
          "internalType": "uint256",
          "name": "nonce",
          "type": "uint256"
        },
        {
          "internalType": "bytes",
          "name": "signature",
          "type": "bytes"
        },
        {
          "internalType": "bytes",
          "name": "sourceChain",
          "type": "bytes"
        },
        {
          "internalType": "bytes",
          "name": "destinationChain",
          "type": "bytes"
        }
      ],
      "name": "swap",
      "outputs": [],
      "stateMutability": "nonpayable",
      "type": "function"
    },
    {
      "inputs": [
        {
          "internalType": "address",
          "name": "user",
          "type": "address"
        },
        {
          "internalType": "uint256",
          "name": "amount",
          "type": "uint256"
        },
        {
          "internalType": "uint256",
          "name": "nonce",
          "type": "uint256"
        },
        {
          "internalType": "bytes",
          "name": "signature",
          "type": "bytes"
        },
        {
          "internalType": "bytes",
          "name": "sourceChain",
          "type": "bytes"
        },
        {
          "internalType": "bytes",
          "name": "destinationChain",
          "type": "bytes"
        }
      ],
      "name": "withdraw",
      "outputs": [],
      "stateMutability": "nonpayable",
      "type": "function"
    }
  ],
  "bytecode": "0x60806040523480156200001157600080fd5b50604051620010b3380380620010b38339818101604052810190620000379190620000ea565b80806000806101000a81548173ffffffffffffffffffffffffffffffffffffffff021916908373ffffffffffffffffffffffffffffffffffffffff16021790555050506200011c565b600080fd5b600073ffffffffffffffffffffffffffffffffffffffff82169050919050565b6000620000b28262000085565b9050919050565b620000c481620000a5565b8114620000d057600080fd5b50565b600081519050620000e481620000b9565b92915050565b60006020828403121562000103576200010262000080565b5b60006200011384828501620000d3565b91505092915050565b610f87806200012c6000396000f3fe608060405234801561001057600080fd5b50600436106100365760003560e01c8063124254b31461003b578063c1ac18cb14610057575b600080fd5b61005560048036038101906100509190610875565b610073565b005b610071600480360381019061006c9190610875565b6102ea565b005b60006100a887878760405160200161008d939291906109bf565b6040516020818303038152906040528051906020012061059f565b90508673ffffffffffffffffffffffffffffffffffffffff166100cb82866105cf565b73ffffffffffffffffffffffffffffffffffffffff1614610121576040517f08c379a000000000000000000000000000000000000000000000000000000000815260040161011890610a7f565b60405180910390fd5b8560008054906101000a900473ffffffffffffffffffffffffffffffffffffffff1673ffffffffffffffffffffffffffffffffffffffff1663dd62ed3e33306040518363ffffffff1660e01b815260040161017d929190610aae565b602060405180830381865afa15801561019a573d6000803e3d6000fd5b505050506040513d601f19601f820116820180604052508101906101be9190610aec565b10156101ff576040517f08c379a00000000000000000000000000000000000000000000000000000000081526004016101f690610b8b565b60405180910390fd5b60008054906101000a900473ffffffffffffffffffffffffffffffffffffffff1673ffffffffffffffffffffffffffffffffffffffff166323b872dd8830896040518463ffffffff1660e01b815260040161025c93929190610bba565b6020604051808303816000875af115801561027b573d6000803e3d6000fd5b505050506040513d601f19601f8201168201806040525081019061029f9190610c29565b507f49524a37d79576fe54246865191c250034f2e08ce0a90925a824e7138395f3aa8787878787876040516102d996959493929190610cde565b60405180910390a150505050505050565b600061031f878787604051602001610304939291906109bf565b6040516020818303038152906040528051906020012061059f565b90508673ffffffffffffffffffffffffffffffffffffffff1661034282866105cf565b73ffffffffffffffffffffffffffffffffffffffff1614610398576040517f08c379a000000000000000000000000000000000000000000000000000000000815260040161038f90610a7f565b60405180910390fd5b600160008873ffffffffffffffffffffffffffffffffffffffff1673ffffffffffffffffffffffffffffffffffffffff168152602001908152602001600020846040516103e59190610d90565b908152602001604051809103902060009054906101000a900460ff1615610441576040517f08c379a000000000000000000000000000000000000000000000000000000000815260040161043890610e19565b60405180910390fd5b60008054906101000a900473ffffffffffffffffffffffffffffffffffffffff1673ffffffffffffffffffffffffffffffffffffffff166323b872dd3089896040518463ffffffff1660e01b815260040161049e93929190610bba565b6020604051808303816000875af11580156104bd573d6000803e3d6000fd5b505050506040513d601f19601f820116820180604052508101906104e19190610c29565b5060018060008973ffffffffffffffffffffffffffffffffffffffff1673ffffffffffffffffffffffffffffffffffffffff168152602001908152602001600020856040516105309190610d90565b908152602001604051809103902060006101000a81548160ff0219169083151502179055507fe0b3eda3a654ac0ed9da71fcc5a0d53c012b4b71a527102f4c4a0a427fbfcc1587878787878760405161058e96959493929190610cde565b60405180910390a150505050505050565b6000816040516020016105b29190610ebb565b604051602081830303815290604052805190602001209050919050565b6000806000806105de85610644565b8093508194508295505050506001868484846040516000815260200160405260405161060d9493929190610f0c565b6020604051602081039080840390855afa15801561062f573d6000803e3d6000fd5b50505060206040510351935050505092915050565b6000806000604184511461065757600080fd5b60008060006020870151925060408701519150606087015160001a90508083839550955095505050509193909250565b6000604051905090565b600080fd5b600080fd5b600073ffffffffffffffffffffffffffffffffffffffff82169050919050565b60006106c68261069b565b9050919050565b6106d6816106bb565b81146106e157600080fd5b50565b6000813590506106f3816106cd565b92915050565b6000819050919050565b61070c816106f9565b811461071757600080fd5b50565b60008135905061072981610703565b92915050565b600080fd5b600080fd5b6000601f19601f8301169050919050565b7f4e487b7100000000000000000000000000000000000000000000000000000000600052604160045260246000fd5b61078282610739565b810181811067ffffffffffffffff821117156107a1576107a061074a565b5b80604052505050565b60006107b4610687565b90506107c08282610779565b919050565b600067ffffffffffffffff8211156107e0576107df61074a565b5b6107e982610739565b9050602081019050919050565b82818337600083830152505050565b6000610818610813846107c5565b6107aa565b90508281526020810184848401111561083457610833610734565b5b61083f8482856107f6565b509392505050565b600082601f83011261085c5761085b61072f565b5b813561086c848260208601610805565b91505092915050565b60008060008060008060c0878903121561089257610891610691565b5b60006108a089828a016106e4565b96505060206108b189828a0161071a565b95505060406108c289828a0161071a565b945050606087013567ffffffffffffffff8111156108e3576108e2610696565b5b6108ef89828a01610847565b935050608087013567ffffffffffffffff8111156109105761090f610696565b5b61091c89828a01610847565b92505060a087013567ffffffffffffffff81111561093d5761093c610696565b5b61094989828a01610847565b9150509295509295509295565b60008160601b9050919050565b600061096e82610956565b9050919050565b600061098082610963565b9050919050565b610998610993826106bb565b610975565b82525050565b6000819050919050565b6109b96109b4826106f9565b61099e565b82525050565b60006109cb8286610987565b6014820191506109db82856109a8565b6020820191506109eb82846109a8565b602082019150819050949350505050565b600082825260208201905092915050565b7f5369676e6174757265204572726f723a204e6f74205369676e6564206279207460008201527f68652050726f706f736572000000000000000000000000000000000000000000602082015250565b6000610a69602b836109fc565b9150610a7482610a0d565b604082019050919050565b60006020820190508181036000830152610a9881610a5c565b9050919050565b610aa8816106bb565b82525050565b6000604082019050610ac36000830185610a9f565b610ad06020830184610a9f565b9392505050565b600081519050610ae681610703565b92915050565b600060208284031215610b0257610b01610691565b5b6000610b1084828501610ad7565b91505092915050565b7f496e73756666696369656e7420416c6c6f77616e636520746f20636f6e74726160008201527f6374000000000000000000000000000000000000000000000000000000000000602082015250565b6000610b756022836109fc565b9150610b8082610b19565b604082019050919050565b60006020820190508181036000830152610ba481610b68565b9050919050565b610bb4816106f9565b82525050565b6000606082019050610bcf6000830186610a9f565b610bdc6020830185610a9f565b610be96040830184610bab565b949350505050565b60008115159050919050565b610c0681610bf1565b8114610c1157600080fd5b50565b600081519050610c2381610bfd565b92915050565b600060208284031215610c3f57610c3e610691565b5b6000610c4d84828501610c14565b91505092915050565b600081519050919050565b600082825260208201905092915050565b60005b83811015610c90578082015181840152602081019050610c75565b83811115610c9f576000848401525b50505050565b6000610cb082610c56565b610cba8185610c61565b9350610cca818560208601610c72565b610cd381610739565b840191505092915050565b600060c082019050610cf36000830189610a9f565b610d006020830188610bab565b610d0d6040830187610bab565b8181036060830152610d1f8186610ca5565b90508181036080830152610d338185610ca5565b905081810360a0830152610d478184610ca5565b9050979650505050505050565b600081905092915050565b6000610d6a82610c56565b610d748185610d54565b9350610d84818560208601610c72565b80840191505092915050565b6000610d9c8284610d5f565b915081905092915050565b7f5472616e73616374696f6e2068617320616c7265616479206265656e2070726f60008201527f6365737365642100000000000000000000000000000000000000000000000000602082015250565b6000610e036027836109fc565b9150610e0e82610da7565b604082019050919050565b60006020820190508181036000830152610e3281610df6565b9050919050565b600081905092915050565b7f19457468657265756d205369676e6564204d6573736167653a0a333200000000600082015250565b6000610e7a601c83610e39565b9150610e8582610e44565b601c82019050919050565b6000819050919050565b6000819050919050565b610eb5610eb082610e90565b610e9a565b82525050565b6000610ec682610e6d565b9150610ed28284610ea4565b60208201915081905092915050565b610eea81610e90565b82525050565b600060ff82169050919050565b610f0681610ef0565b82525050565b6000608082019050610f216000830187610ee1565b610f2e6020830186610efd565b610f3b6040830185610ee1565b610f486060830184610ee1565b9594505050505056fea2646970667358221220fc6102fc9b8ddcd11b3702a699e0c87b3547305ad1a5fda46134d51637df45df64736f6c634300080d0033",
  "immutableReferences": {},
  "source": "pragma solidity ^0.8.0;\r\n\r\nimport \"./BridgeBase.sol\";\r\n\r\ncontract BridgePolygon is SwapBridgeBase {\r\n    constructor(address token) SwapBridgeBase(token) {}\r\n}\r\n",
  "sourcePath": "D:\\DeFi\\AnyChainSwap\\contracts\\BridgePolygon.sol",
  "compiler": {
    "name": "solc",
    "version": "0.8.13+commit.abaa5c0e.Emscripten.clang"
  },
  "schemaVersion": "3.4.11",
  "updatedAt": "2023-02-12T09:07:22.254Z",
  "devdoc": {
    "kind": "dev",
    "methods": {},
    "version": 1
  },
  "userdoc": {
    "kind": "user",
    "methods": {},
    "version": 1
  }
}