{
  "contractName": "BridgeEth",
  "abi": [
    {
      "inputs": [
        {
          "internalType": "address",
          "name": "token",
          "type": "address"
        }
      ],
      "stateMutability": "nonpayable",
      "type": "constructor"
    },
    {
      "anonymous": false,
      "inputs": [
        {
          "indexed": false,
          "internalType": "address",
          "name": "user",
          "type": "address"
        },
        {
          "indexed": false,
          "internalType": "uint256",
          "name": "amount",
          "type": "uint256"
        },
        {
          "indexed": false,
          "internalType": "uint256",
          "name": "nonce",
          "type": "uint256"
        },
        {
          "indexed": false,
          "internalType": "bytes",
          "name": "signature",
          "type": "bytes"
        },
        {
          "indexed": false,
          "internalType": "string",
          "name": "sourceChain",
          "type": "string"
        },
        {
          "indexed": false,
          "internalType": "string",
          "name": "destinationChain",
          "type": "string"
        }
      ],
      "name": "DepositSuccess",
      "type": "event"
    },
    {
      "anonymous": false,
      "inputs": [
        {
          "indexed": false,
          "internalType": "address",
          "name": "user",
          "type": "address"
        },
        {
          "indexed": false,
          "internalType": "uint256",
          "name": "amount",
          "type": "uint256"
        },
        {
          "indexed": false,
          "internalType": "uint256",
          "name": "nonce",
          "type": "uint256"
        },
        {
          "indexed": false,
          "internalType": "bytes",
          "name": "signature",
          "type": "bytes"
        },
        {
          "indexed": false,
          "internalType": "string",
          "name": "sourceChain",
          "type": "string"
        },
        {
          "indexed": false,
          "internalType": "string",
          "name": "destinationChain",
          "type": "string"
        }
      ],
      "name": "WithdrawSuccess",
      "type": "event"
    },
    {
      "inputs": [
        {
          "internalType": "address",
          "name": "user",
          "type": "address"
        },
        {
          "internalType": "uint256",
          "name": "amount",
          "type": "uint256"
        },
        {
          "internalType": "uint256",
          "name": "nonce",
          "type": "uint256"
        },
        {
          "internalType": "bytes",
          "name": "signature",
          "type": "bytes"
        },
        {
          "internalType": "string",
          "name": "sourceChain",
          "type": "string"
        },
        {
          "internalType": "string",
          "name": "destinationChain",
          "type": "string"
        }
      ],
      "name": "swap",
      "outputs": [],
      "stateMutability": "nonpayable",
      "type": "function"
    },
    {
      "inputs": [
        {
          "internalType": "address",
          "name": "user",
          "type": "address"
        },
        {
          "internalType": "uint256",
          "name": "amount",
          "type": "uint256"
        },
        {
          "internalType": "uint256",
          "name": "nonce",
          "type": "uint256"
        },
        {
          "internalType": "bytes",
          "name": "signature",
          "type": "bytes"
        },
        {
          "internalType": "string",
          "name": "sourceChain",
          "type": "string"
        },
        {
          "internalType": "string",
          "name": "destinationChain",
          "type": "string"
        }
      ],
      "name": "withdraw",
      "outputs": [],
      "stateMutability": "nonpayable",
      "type": "function"
    }
  ],
  "bytecode": "0x60806040523480156200001157600080fd5b5060405162001198380380620011988339818101604052810190620000379190620000ea565b80806000806101000a81548173ffffffffffffffffffffffffffffffffffffffff021916908373ffffffffffffffffffffffffffffffffffffffff16021790555050506200011c565b600080fd5b600073ffffffffffffffffffffffffffffffffffffffff82169050919050565b6000620000b28262000085565b9050919050565b620000c481620000a5565b8114620000d057600080fd5b50565b600081519050620000e481620000b9565b92915050565b60006020828403121562000103576200010262000080565b5b60006200011384828501620000d3565b91505092915050565b61106c806200012c6000396000f3fe608060405234801561001057600080fd5b50600436106100365760003560e01c806384e6069a1461003b578063d3752afb14610057575b600080fd5b61005560048036038101906100509190610916565b610073565b005b610071600480360381019061006c9190610916565b6102ea565b005b60006100a887878760405160200161008d93929190610a60565b6040516020818303038152906040528051906020012061059f565b90508673ffffffffffffffffffffffffffffffffffffffff166100cb82866105cf565b73ffffffffffffffffffffffffffffffffffffffff1614610121576040517f08c379a000000000000000000000000000000000000000000000000000000000815260040161011890610b20565b60405180910390fd5b8560008054906101000a900473ffffffffffffffffffffffffffffffffffffffff1673ffffffffffffffffffffffffffffffffffffffff1663dd62ed3e33306040518363ffffffff1660e01b815260040161017d929190610b4f565b602060405180830381865afa15801561019a573d6000803e3d6000fd5b505050506040513d601f19601f820116820180604052508101906101be9190610b8d565b10156101ff576040517f08c379a00000000000000000000000000000000000000000000000000000000081526004016101f690610c2c565b60405180910390fd5b60008054906101000a900473ffffffffffffffffffffffffffffffffffffffff1673ffffffffffffffffffffffffffffffffffffffff166323b872dd8830896040518463ffffffff1660e01b815260040161025c93929190610c5b565b6020604051808303816000875af115801561027b573d6000803e3d6000fd5b505050506040513d601f19601f8201168201806040525081019061029f9190610cca565b507fd1cba82d921e87a7d91ad09bc181b278d0b2de7388c131164a9609dcabfa187a8787878787876040516102d996959493929190610dc3565b60405180910390a150505050505050565b600061031f87878760405160200161030493929190610a60565b6040516020818303038152906040528051906020012061059f565b90508673ffffffffffffffffffffffffffffffffffffffff1661034282866105cf565b73ffffffffffffffffffffffffffffffffffffffff1614610398576040517f08c379a000000000000000000000000000000000000000000000000000000000815260040161038f90610b20565b60405180910390fd5b600160008873ffffffffffffffffffffffffffffffffffffffff1673ffffffffffffffffffffffffffffffffffffffff168152602001908152602001600020846040516103e59190610e75565b908152602001604051809103902060009054906101000a900460ff1615610441576040517f08c379a000000000000000000000000000000000000000000000000000000000815260040161043890610efe565b60405180910390fd5b60008054906101000a900473ffffffffffffffffffffffffffffffffffffffff1673ffffffffffffffffffffffffffffffffffffffff166323b872dd3089896040518463ffffffff1660e01b815260040161049e93929190610c5b565b6020604051808303816000875af11580156104bd573d6000803e3d6000fd5b505050506040513d601f19601f820116820180604052508101906104e19190610cca565b5060018060008973ffffffffffffffffffffffffffffffffffffffff1673ffffffffffffffffffffffffffffffffffffffff168152602001908152602001600020856040516105309190610e75565b908152602001604051809103902060006101000a81548160ff0219169083151502179055507fbb8d05d2a0bb526250a8567c0cfd4bd33c68de8d0e69af49ed6d45a2b4a9928487878787878760405161058e96959493929190610dc3565b60405180910390a150505050505050565b6000816040516020016105b29190610fa0565b604051602081830303815290604052805190602001209050919050565b6000806000806105de85610644565b8093508194508295505050506001868484846040516000815260200160405260405161060d9493929190610ff1565b6020604051602081039080840390855afa15801561062f573d6000803e3d6000fd5b50505060206040510351935050505092915050565b6000806000604184511461065757600080fd5b60008060006020870151925060408701519150606087015160001a90508083839550955095505050509193909250565b6000604051905090565b600080fd5b600080fd5b600073ffffffffffffffffffffffffffffffffffffffff82169050919050565b60006106c68261069b565b9050919050565b6106d6816106bb565b81146106e157600080fd5b50565b6000813590506106f3816106cd565b92915050565b6000819050919050565b61070c816106f9565b811461071757600080fd5b50565b60008135905061072981610703565b92915050565b600080fd5b600080fd5b6000601f19601f8301169050919050565b7f4e487b7100000000000000000000000000000000000000000000000000000000600052604160045260246000fd5b61078282610739565b810181811067ffffffffffffffff821117156107a1576107a061074a565b5b80604052505050565b60006107b4610687565b90506107c08282610779565b919050565b600067ffffffffffffffff8211156107e0576107df61074a565b5b6107e982610739565b9050602081019050919050565b82818337600083830152505050565b6000610818610813846107c5565b6107aa565b90508281526020810184848401111561083457610833610734565b5b61083f8482856107f6565b509392505050565b600082601f83011261085c5761085b61072f565b5b813561086c848260208601610805565b91505092915050565b600067ffffffffffffffff8211156108905761088f61074a565b5b61089982610739565b9050602081019050919050565b60006108b96108b484610875565b6107aa565b9050828152602081018484840111156108d5576108d4610734565b5b6108e08482856107f6565b509392505050565b600082601f8301126108fd576108fc61072f565b5b813561090d8482602086016108a6565b91505092915050565b60008060008060008060c0878903121561093357610932610691565b5b600061094189828a016106e4565b965050602061095289828a0161071a565b955050604061096389828a0161071a565b945050606087013567ffffffffffffffff81111561098457610983610696565b5b61099089828a01610847565b935050608087013567ffffffffffffffff8111156109b1576109b0610696565b5b6109bd89828a016108e8565b92505060a087013567ffffffffffffffff8111156109de576109dd610696565b5b6109ea89828a016108e8565b9150509295509295509295565b60008160601b9050919050565b6000610a0f826109f7565b9050919050565b6000610a2182610a04565b9050919050565b610a39610a34826106bb565b610a16565b82525050565b6000819050919050565b610a5a610a55826106f9565b610a3f565b82525050565b6000610a6c8286610a28565b601482019150610a7c8285610a49565b602082019150610a8c8284610a49565b602082019150819050949350505050565b600082825260208201905092915050565b7f5369676e6174757265204572726f723a204e6f74205369676e6564206279207460008201527f68652050726f706f736572000000000000000000000000000000000000000000602082015250565b6000610b0a602b83610a9d565b9150610b1582610aae565b604082019050919050565b60006020820190508181036000830152610b3981610afd565b9050919050565b610b49816106bb565b82525050565b6000604082019050610b646000830185610b40565b610b716020830184610b40565b9392505050565b600081519050610b8781610703565b92915050565b600060208284031215610ba357610ba2610691565b5b6000610bb184828501610b78565b91505092915050565b7f496e73756666696369656e7420416c6c6f77616e636520746f20636f6e74726160008201527f6374000000000000000000000000000000000000000000000000000000000000602082015250565b6000610c16602283610a9d565b9150610c2182610bba565b604082019050919050565b60006020820190508181036000830152610c4581610c09565b9050919050565b610c55816106f9565b82525050565b6000606082019050610c706000830186610b40565b610c7d6020830185610b40565b610c8a6040830184610c4c565b949350505050565b60008115159050919050565b610ca781610c92565b8114610cb257600080fd5b50565b600081519050610cc481610c9e565b92915050565b600060208284031215610ce057610cdf610691565b5b6000610cee84828501610cb5565b91505092915050565b600081519050919050565b600082825260208201905092915050565b60005b83811015610d31578082015181840152602081019050610d16565b83811115610d40576000848401525b50505050565b6000610d5182610cf7565b610d5b8185610d02565b9350610d6b818560208601610d13565b610d7481610739565b840191505092915050565b600081519050919050565b6000610d9582610d7f565b610d9f8185610a9d565b9350610daf818560208601610d13565b610db881610739565b840191505092915050565b600060c082019050610dd86000830189610b40565b610de56020830188610c4c565b610df26040830187610c4c565b8181036060830152610e048186610d46565b90508181036080830152610e188185610d8a565b905081810360a0830152610e2c8184610d8a565b9050979650505050505050565b600081905092915050565b6000610e4f82610cf7565b610e598185610e39565b9350610e69818560208601610d13565b80840191505092915050565b6000610e818284610e44565b915081905092915050565b7f5472616e73616374696f6e2068617320616c7265616479206265656e2070726f60008201527f6365737365642100000000000000000000000000000000000000000000000000602082015250565b6000610ee8602783610a9d565b9150610ef382610e8c565b604082019050919050565b60006020820190508181036000830152610f1781610edb565b9050919050565b600081905092915050565b7f19457468657265756d205369676e6564204d6573736167653a0a333200000000600082015250565b6000610f5f601c83610f1e565b9150610f6a82610f29565b601c82019050919050565b6000819050919050565b6000819050919050565b610f9a610f9582610f75565b610f7f565b82525050565b6000610fab82610f52565b9150610fb78284610f89565b60208201915081905092915050565b610fcf81610f75565b82525050565b600060ff82169050919050565b610feb81610fd5565b82525050565b60006080820190506110066000830187610fc6565b6110136020830186610fe2565b6110206040830185610fc6565b61102d6060830184610fc6565b9594505050505056fea2646970667358221220c1b2bcbf63380f785f9c6c0c25364131fbe0d0ebdb461e6eba0b638c5a5d09c164736f6c634300080d0033",
  "immutableReferences": {},
  "source": "pragma solidity ^0.8.0;\n\nimport \"./BridgeBase.sol\";\n\ncontract BridgeEth is SwapBridgeBase {\n    constructor(address token) SwapBridgeBase(token) {}\n}\n",
  "sourcePath": "D:\\DeFi\\AnyChainSwap\\contracts\\BridgeEth.sol",
  "compiler": {
    "name": "solc",
    "version": "0.8.13+commit.abaa5c0e.Emscripten.clang"
  },
  "schemaVersion": "3.4.11",
  "updatedAt": "2023-02-13T02:59:16.053Z",
  "networkType": "ethereum",
  "devdoc": {
    "kind": "dev",
    "methods": {},
    "version": 1
  },
  "userdoc": {
    "kind": "user",
    "methods": {},
    "version": 1
  }
}