{
  "contractName": "SwapBridgeBase",
  "abi": [
    {
      "inputs": [
        {
          "internalType": "address",
          "name": "_token1",
          "type": "address"
        },
        {
          "internalType": "address",
          "name": "_token2",
          "type": "address"
        },
        {
          "internalType": "address",
          "name": "_token3",
          "type": "address"
        },
        {
          "internalType": "address",
          "name": "_token4",
          "type": "address"
        },
        {
          "internalType": "address",
          "name": "_token5",
          "type": "address"
        }
      ],
      "stateMutability": "nonpayable",
      "type": "constructor"
    },
    {
      "anonymous": false,
      "inputs": [
        {
          "indexed": false,
          "internalType": "address",
          "name": "user",
          "type": "address"
        },
        {
          "indexed": false,
          "internalType": "uint256",
          "name": "tokenNumber",
          "type": "uint256"
        },
        {
          "indexed": false,
          "internalType": "uint256",
          "name": "amount",
          "type": "uint256"
        },
        {
          "indexed": false,
          "internalType": "uint256",
          "name": "nonce",
          "type": "uint256"
        },
        {
          "indexed": false,
          "internalType": "bytes",
          "name": "signature",
          "type": "bytes"
        },
        {
          "indexed": false,
          "internalType": "string",
          "name": "sourceChain",
          "type": "string"
        },
        {
          "indexed": false,
          "internalType": "string",
          "name": "destinationChain",
          "type": "string"
        }
      ],
      "name": "DepositSuccess",
      "type": "event"
    },
    {
      "anonymous": false,
      "inputs": [
        {
          "indexed": false,
          "internalType": "address",
          "name": "user",
          "type": "address"
        },
        {
          "indexed": false,
          "internalType": "uint256",
          "name": "tokenNumber",
          "type": "uint256"
        },
        {
          "indexed": false,
          "internalType": "uint256",
          "name": "amount",
          "type": "uint256"
        },
        {
          "indexed": false,
          "internalType": "uint256",
          "name": "nonce",
          "type": "uint256"
        },
        {
          "indexed": false,
          "internalType": "bytes",
          "name": "signature",
          "type": "bytes"
        },
        {
          "indexed": false,
          "internalType": "string",
          "name": "sourceChain",
          "type": "string"
        },
        {
          "indexed": false,
          "internalType": "string",
          "name": "destinationChain",
          "type": "string"
        }
      ],
      "name": "WithdrawSuccess",
      "type": "event"
    },
    {
      "inputs": [
        {
          "internalType": "uint256",
          "name": "",
          "type": "uint256"
        }
      ],
      "name": "tokens",
      "outputs": [
        {
          "internalType": "contract IERC20",
          "name": "",
          "type": "address"
        }
      ],
      "stateMutability": "view",
      "type": "function"
    },
    {
      "inputs": [
        {
          "internalType": "address",
          "name": "user",
          "type": "address"
        },
        {
          "internalType": "uint256",
          "name": "tokenNumber",
          "type": "uint256"
        },
        {
          "internalType": "uint256",
          "name": "amount",
          "type": "uint256"
        },
        {
          "internalType": "uint256",
          "name": "nonce",
          "type": "uint256"
        },
        {
          "internalType": "bytes",
          "name": "signature",
          "type": "bytes"
        },
        {
          "internalType": "string",
          "name": "sourceChain",
          "type": "string"
        },
        {
          "internalType": "string",
          "name": "destinationChain",
          "type": "string"
        }
      ],
      "name": "swap",
      "outputs": [],
      "stateMutability": "nonpayable",
      "type": "function"
    },
    {
      "inputs": [
        {
          "internalType": "address",
          "name": "user",
          "type": "address"
        },
        {
          "internalType": "uint256",
          "name": "tokenNumber",
          "type": "uint256"
        },
        {
          "internalType": "uint256",
          "name": "amount",
          "type": "uint256"
        },
        {
          "internalType": "uint256",
          "name": "nonce",
          "type": "uint256"
        },
        {
          "internalType": "bytes",
          "name": "signature",
          "type": "bytes"
        },
        {
          "internalType": "string",
          "name": "sourceChain",
          "type": "string"
        },
        {
          "internalType": "string",
          "name": "destinationChain",
          "type": "string"
        }
      ],
      "name": "withdraw",
      "outputs": [],
      "stateMutability": "nonpayable",
      "type": "function"
    },
    {
      "inputs": [
        {
          "internalType": "address",
          "name": "user",
          "type": "address"
        },
        {
          "internalType": "bytes",
          "name": "signature",
          "type": "bytes"
        }
      ],
      "name": "isTransactionProcessed",
      "outputs": [
        {
          "internalType": "bool",
          "name": "",
          "type": "bool"
        }
      ],
      "stateMutability": "nonpayable",
      "type": "function"
    }
  ],
  "bytecode": "0x60806040523480156200001157600080fd5b506040516200182f3803806200182f83398181016040528101906200003791906200029b565b6000859080600181540180825580915050600190039060005260206000200160009091909190916101000a81548173ffffffffffffffffffffffffffffffffffffffff021916908373ffffffffffffffffffffffffffffffffffffffff1602179055506000849080600181540180825580915050600190039060005260206000200160009091909190916101000a81548173ffffffffffffffffffffffffffffffffffffffff021916908373ffffffffffffffffffffffffffffffffffffffff1602179055506000839080600181540180825580915050600190039060005260206000200160009091909190916101000a81548173ffffffffffffffffffffffffffffffffffffffff021916908373ffffffffffffffffffffffffffffffffffffffff1602179055506000829080600181540180825580915050600190039060005260206000200160009091909190916101000a81548173ffffffffffffffffffffffffffffffffffffffff021916908373ffffffffffffffffffffffffffffffffffffffff1602179055506000819080600181540180825580915050600190039060005260206000200160009091909190916101000a81548173ffffffffffffffffffffffffffffffffffffffff021916908373ffffffffffffffffffffffffffffffffffffffff160217905550505050505062000323565b600080fd5b600073ffffffffffffffffffffffffffffffffffffffff82169050919050565b6000620002638262000236565b9050919050565b620002758162000256565b81146200028157600080fd5b50565b60008151905062000295816200026a565b92915050565b600080600080600060a08688031215620002ba57620002b962000231565b5b6000620002ca8882890162000284565b9550506020620002dd8882890162000284565b9450506040620002f08882890162000284565b9350506060620003038882890162000284565b9250506080620003168882890162000284565b9150509295509295909350565b6114fc80620003336000396000f3fe608060405234801561001057600080fd5b506004361061004c5760003560e01c80631b63509e1461005157806348a0a84f146100815780634f64b2be1461009d57806396afdf13146100cd575b600080fd5b61006b60048036038101906100669190610a61565b6100e9565b6040516100789190610ad8565b60405180910390f35b61009b60048036038101906100969190610bca565b61015c565b005b6100b760048036038101906100b29190610cc0565b610441565b6040516100c49190610d4c565b60405180910390f35b6100e760048036038101906100e29190610bca565b610480565b005b6000600160008473ffffffffffffffffffffffffffffffffffffffff1673ffffffffffffffffffffffffffffffffffffffff168152602001908152602001600020826040516101389190610dd8565b908152602001604051809103902060009054906101000a900460ff16905092915050565b600061019188878760405160200161017693929190610e58565b604051602081830303815290604052805190602001206107d0565b90508773ffffffffffffffffffffffffffffffffffffffff166101b48286610800565b73ffffffffffffffffffffffffffffffffffffffff161461020a576040517f08c379a000000000000000000000000000000000000000000000000000000000815260040161020190610f18565b60405180910390fd5b600160008973ffffffffffffffffffffffffffffffffffffffff1673ffffffffffffffffffffffffffffffffffffffff168152602001908152602001600020846040516102579190610dd8565b908152602001604051809103902060009054906101000a900460ff16156102b3576040517f08c379a00000000000000000000000000000000000000000000000000000000081526004016102aa90610faa565b60405180910390fd5b6000806001896102c39190610ff9565b815481106102d4576102d361102d565b5b9060005260206000200160009054906101000a900473ffffffffffffffffffffffffffffffffffffffff1690508073ffffffffffffffffffffffffffffffffffffffff1663a9059cbb8a896040518363ffffffff1660e01b815260040161033c92919061107a565b6020604051808303816000875af115801561035b573d6000803e3d6000fd5b505050506040513d601f19601f8201168201806040525081019061037f91906110cf565b5060018060008b73ffffffffffffffffffffffffffffffffffffffff1673ffffffffffffffffffffffffffffffffffffffff168152602001908152602001600020866040516103ce9190610dd8565b908152602001604051809103902060006101000a81548160ff0219169083151502179055507fb3ad759795ed5c5777ee379e0a8ff7811ccd917b34f621120f630620e6f99bd08989898989898960405161042e979695949392919061118a565b60405180910390a1505050505050505050565b6000818154811061045157600080fd5b906000526020600020016000915054906101000a900473ffffffffffffffffffffffffffffffffffffffff1681565b60006104b588878760405160200161049a93929190610e58565b604051602081830303815290604052805190602001206107d0565b90508773ffffffffffffffffffffffffffffffffffffffff166104d88286610800565b73ffffffffffffffffffffffffffffffffffffffff161461052e576040517f08c379a000000000000000000000000000000000000000000000000000000000815260040161052590610f18565b60405180910390fd5b600080549050871080156105425750600087115b610581576040517f08c379a00000000000000000000000000000000000000000000000000000000081526004016105789061125a565b60405180910390fd5b6000806001896105919190610ff9565b815481106105a2576105a161102d565b5b9060005260206000200160009054906101000a900473ffffffffffffffffffffffffffffffffffffffff169050868173ffffffffffffffffffffffffffffffffffffffff1663dd62ed3e33306040518363ffffffff1660e01b815260040161060b92919061127a565b602060405180830381865afa158015610628573d6000803e3d6000fd5b505050506040513d601f19601f8201168201806040525081019061064c91906112b8565b101561068d576040517f08c379a000000000000000000000000000000000000000000000000000000000815260040161068490611357565b60405180910390fd5b8073ffffffffffffffffffffffffffffffffffffffff166323b872dd8a308a6040518463ffffffff1660e01b81526004016106ca93929190611377565b6020604051808303816000875af11580156106e9573d6000803e3d6000fd5b505050506040513d601f19601f8201168201806040525081019061070d91906110cf565b506000600160008b73ffffffffffffffffffffffffffffffffffffffff1673ffffffffffffffffffffffffffffffffffffffff1681526020019081526020016000208660405161075d9190610dd8565b908152602001604051809103902060006101000a81548160ff0219169083151502179055507fabb6b9a9bec1608fa239089bec0deb64fb2a3491647a6ae6f0b61b7912e23b83898989898989896040516107bd979695949392919061118a565b60405180910390a1505050505050505050565b6000816040516020016107e39190611430565b604051602081830303815290604052805190602001209050919050565b60008060008061080f85610875565b8093508194508295505050506001868484846040516000815260200160405260405161083e9493929190611481565b6020604051602081039080840390855afa158015610860573d6000803e3d6000fd5b50505060206040510351935050505092915050565b6000806000806000806020870151925060408701519150606087015160001a90508083839550955095505050509193909250565b6000604051905090565b600080fd5b600080fd5b600073ffffffffffffffffffffffffffffffffffffffff82169050919050565b60006108e8826108bd565b9050919050565b6108f8816108dd565b811461090357600080fd5b50565b600081359050610915816108ef565b92915050565b600080fd5b600080fd5b6000601f19601f8301169050919050565b7f4e487b7100000000000000000000000000000000000000000000000000000000600052604160045260246000fd5b61096e82610925565b810181811067ffffffffffffffff8211171561098d5761098c610936565b5b80604052505050565b60006109a06108a9565b90506109ac8282610965565b919050565b600067ffffffffffffffff8211156109cc576109cb610936565b5b6109d582610925565b9050602081019050919050565b82818337600083830152505050565b6000610a046109ff846109b1565b610996565b905082815260208101848484011115610a2057610a1f610920565b5b610a2b8482856109e2565b509392505050565b600082601f830112610a4857610a4761091b565b5b8135610a588482602086016109f1565b91505092915050565b60008060408385031215610a7857610a776108b3565b5b6000610a8685828601610906565b925050602083013567ffffffffffffffff811115610aa757610aa66108b8565b5b610ab385828601610a33565b9150509250929050565b60008115159050919050565b610ad281610abd565b82525050565b6000602082019050610aed6000830184610ac9565b92915050565b6000819050919050565b610b0681610af3565b8114610b1157600080fd5b50565b600081359050610b2381610afd565b92915050565b600067ffffffffffffffff821115610b4457610b43610936565b5b610b4d82610925565b9050602081019050919050565b6000610b6d610b6884610b29565b610996565b905082815260208101848484011115610b8957610b88610920565b5b610b948482856109e2565b509392505050565b600082601f830112610bb157610bb061091b565b5b8135610bc1848260208601610b5a565b91505092915050565b600080600080600080600060e0888a031215610be957610be86108b3565b5b6000610bf78a828b01610906565b9750506020610c088a828b01610b14565b9650506040610c198a828b01610b14565b9550506060610c2a8a828b01610b14565b945050608088013567ffffffffffffffff811115610c4b57610c4a6108b8565b5b610c578a828b01610a33565b93505060a088013567ffffffffffffffff811115610c7857610c776108b8565b5b610c848a828b01610b9c565b92505060c088013567ffffffffffffffff811115610ca557610ca46108b8565b5b610cb18a828b01610b9c565b91505092959891949750929550565b600060208284031215610cd657610cd56108b3565b5b6000610ce484828501610b14565b91505092915050565b6000819050919050565b6000610d12610d0d610d08846108bd565b610ced565b6108bd565b9050919050565b6000610d2482610cf7565b9050919050565b6000610d3682610d19565b9050919050565b610d4681610d2b565b82525050565b6000602082019050610d616000830184610d3d565b92915050565b600081519050919050565b600081905092915050565b60005b83811015610d9b578082015181840152602081019050610d80565b60008484015250505050565b6000610db282610d67565b610dbc8185610d72565b9350610dcc818560208601610d7d565b80840191505092915050565b6000610de48284610da7565b915081905092915050565b60008160601b9050919050565b6000610e0782610def565b9050919050565b6000610e1982610dfc565b9050919050565b610e31610e2c826108dd565b610e0e565b82525050565b6000819050919050565b610e52610e4d82610af3565b610e37565b82525050565b6000610e648286610e20565b601482019150610e748285610e41565b602082019150610e848284610e41565b602082019150819050949350505050565b600082825260208201905092915050565b7f5369676e6174757265204572726f723a204e6f74205369676e6564206279207460008201527f68652050726f706f736572000000000000000000000000000000000000000000602082015250565b6000610f02602b83610e95565b9150610f0d82610ea6565b604082019050919050565b60006020820190508181036000830152610f3181610ef5565b9050919050565b7f5472616e73616374696f6e2068617320616c7265616479206265656e2070726f60008201527f6365737365642100000000000000000000000000000000000000000000000000602082015250565b6000610f94602783610e95565b9150610f9f82610f38565b604082019050919050565b60006020820190508181036000830152610fc381610f87565b9050919050565b7f4e487b7100000000000000000000000000000000000000000000000000000000600052601160045260246000fd5b600061100482610af3565b915061100f83610af3565b925082820390508181111561102757611026610fca565b5b92915050565b7f4e487b7100000000000000000000000000000000000000000000000000000000600052603260045260246000fd5b611065816108dd565b82525050565b61107481610af3565b82525050565b600060408201905061108f600083018561105c565b61109c602083018461106b565b9392505050565b6110ac81610abd565b81146110b757600080fd5b50565b6000815190506110c9816110a3565b92915050565b6000602082840312156110e5576110e46108b3565b5b60006110f3848285016110ba565b91505092915050565b600082825260208201905092915050565b600061111882610d67565b61112281856110fc565b9350611132818560208601610d7d565b61113b81610925565b840191505092915050565b600081519050919050565b600061115c82611146565b6111668185610e95565b9350611176818560208601610d7d565b61117f81610925565b840191505092915050565b600060e08201905061119f600083018a61105c565b6111ac602083018961106b565b6111b9604083018861106b565b6111c6606083018761106b565b81810360808301526111d8818661110d565b905081810360a08301526111ec8185611151565b905081810360c08301526112008184611151565b905098975050505050505050565b7f496e76616c696420746f6b656e204e756d626572000000000000000000000000600082015250565b6000611244601483610e95565b915061124f8261120e565b602082019050919050565b6000602082019050818103600083015261127381611237565b9050919050565b600060408201905061128f600083018561105c565b61129c602083018461105c565b9392505050565b6000815190506112b281610afd565b92915050565b6000602082840312156112ce576112cd6108b3565b5b60006112dc848285016112a3565b91505092915050565b7f496e73756666696369656e7420416c6c6f77616e636520746f20636f6e74726160008201527f6374000000000000000000000000000000000000000000000000000000000000602082015250565b6000611341602283610e95565b915061134c826112e5565b604082019050919050565b6000602082019050818103600083015261137081611334565b9050919050565b600060608201905061138c600083018661105c565b611399602083018561105c565b6113a6604083018461106b565b949350505050565b600081905092915050565b7f19457468657265756d205369676e6564204d6573736167653a0a333200000000600082015250565b60006113ef601c836113ae565b91506113fa826113b9565b601c82019050919050565b6000819050919050565b6000819050919050565b61142a61142582611405565b61140f565b82525050565b600061143b826113e2565b91506114478284611419565b60208201915081905092915050565b61145f81611405565b82525050565b600060ff82169050919050565b61147b81611465565b82525050565b60006080820190506114966000830187611456565b6114a36020830186611472565b6114b06040830185611456565b6114bd6060830184611456565b9594505050505056fea2646970667358221220903ca8100e8c4775ff271bf74f166527b30b4b103e8a668e4f1a5dc841ebca3a64736f6c63430008120033",
  "immutableReferences": {},
  "source": "pragma solidity ^0.8.0;\n\nimport \"@openzeppelin/contracts/token/ERC20/IERC20.sol\";\n\ncontract SwapBridgeBase {\n    IERC20[] public tokens;\n\n    mapping(address => mapping(bytes => bool)) processedUserSignatures;\n\n    constructor(\n        address _token1,\n        address _token2,\n        address _token3,\n        address _token4,\n        address _token5\n    ) {\n        tokens.push(IERC20(_token1));\n        tokens.push(IERC20(_token2));\n        tokens.push(IERC20(_token3));\n        tokens.push(IERC20(_token4));\n        tokens.push(IERC20(_token5));\n    }\n\n    event DepositSuccess(\n        address user,\n        uint tokenNumber,\n        uint amount,\n        uint nonce,\n        bytes signature,\n        string sourceChain,\n        string destinationChain\n    );\n    event WithdrawSuccess(\n        address user,\n        uint tokenNumber,\n        uint amount,\n        uint nonce,\n        bytes signature,\n        string sourceChain,\n        string destinationChain\n    );\n\n    function swap(\n        address user,\n        uint tokenNumber,\n        uint amount,\n        uint nonce,\n        bytes memory signature,\n        string memory sourceChain,\n        string memory destinationChain\n    ) public {\n        bytes32 message = prefixed(\n            keccak256(abi.encodePacked(user, amount, nonce))\n        );\n        require(\n            recoverSigner(message, signature) == user,\n            \"Signature Error: Not Signed by the Proposer\"\n        );\n        // 0x7ec4d3fb081bd6db1102f7cfd085984fb7ab4e8e04de61f2b94dcd7858778d14159aed4255970932617ad4ffd1e75d301764162bca181b8cdec183db9f1a446e1c\n        // 0x7ec4d3fb081bd6db1102f7cfd085984fb7ab4e8e04de61f2b94dcd7858778d14159aed4255970932617ad4ffd1e75d301764162bca181b8cdec183db9f1a446e1c\n        require(\n            tokenNumber < tokens.length && tokenNumber > 0,\n            \"Invalid token Number\"\n        );\n        IERC20 token = tokens[tokenNumber - 1];\n\n        require(\n            token.allowance(msg.sender, address(this)) >= amount,\n            \"Insufficient Allowance to contract\"\n        );\n        // take tokens in from user\n\n        token.transferFrom(user, address(this), amount);\n        processedUserSignatures[user][signature] = false;\n\n        emit DepositSuccess(\n            user,\n            tokenNumber,\n            amount,\n            nonce,\n            signature,\n            sourceChain,\n            destinationChain\n        );\n    }\n\n    function withdraw(\n        address user,\n        uint tokenNumber,\n        uint amount,\n        uint nonce,\n        bytes memory signature,\n        string memory sourceChain,\n        string memory destinationChain\n    ) public {\n        // if the signature is valid\n        bytes32 message = prefixed(\n            keccak256(abi.encodePacked(user, amount, nonce))\n        );\n        require(\n            recoverSigner(message, signature) == user,\n            \"Signature Error: Not Signed by the Proposer\"\n        );\n        require(\n            !processedUserSignatures[user][signature],\n            \"Transaction has already been processed!\"\n        );\n        IERC20 token = tokens[tokenNumber - 1];\n\n        token.transfer(user, amount);\n        processedUserSignatures[user][signature] = true;\n\n        emit WithdrawSuccess(\n            user,\n            tokenNumber,\n            amount,\n            nonce,\n            signature,\n            sourceChain,\n            destinationChain\n        );\n    }\n\n    function isTransactionProcessed(\n        address user,\n        bytes memory signature\n    ) public returns (bool) {\n        return processedUserSignatures[user][signature];\n    }\n\n    /** Signature Verification Utilities */\n\n    function prefixed(bytes32 hash) internal pure returns (bytes32) {\n        return\n            keccak256(\n                abi.encodePacked(\"\\x19Ethereum Signed Message:\\n32\", hash)\n            );\n    }\n\n    function recoverSigner(\n        bytes32 message,\n        bytes memory sig\n    ) internal pure returns (address) {\n        uint8 v;\n        bytes32 r;\n        bytes32 s;\n\n        (v, r, s) = splitSignature(sig);\n\n        return ecrecover(message, v, r, s);\n    }\n\n    function splitSignature(\n        bytes memory sig\n    ) internal pure returns (uint8, bytes32, bytes32) {\n        bytes32 r;\n        bytes32 s;\n        uint8 v;\n\n        assembly {\n            // first 32 bytes, after the length prefix\n            r := mload(add(sig, 32))\n            // second 32 bytes\n            s := mload(add(sig, 64))\n            // final byte (first byte of the next 32 bytes)\n            v := byte(0, mload(add(sig, 96)))\n        }\n\n        return (v, r, s);\n    }\n}\n",
  "sourcePath": "D:\\DeFi\\AnyChainSwap\\contracts\\BridgeBase.sol",
  "compiler": {
    "name": "solc",
    "version": "0.8.18+commit.87f61d96.Emscripten.clang"
  },
  "schemaVersion": "3.4.11",
  "updatedAt": "2023-02-15T06:57:00.049Z",
  "devdoc": {
    "kind": "dev",
    "methods": {},
    "version": 1
  },
  "userdoc": {
    "kind": "user",
    "methods": {},
    "version": 1
  }
}