{
  "contractName": "SwapBridgeBase",
  "abi": [
    {
      "inputs": [
        {
          "internalType": "address",
          "name": "_token",
          "type": "address"
        }
      ],
      "stateMutability": "nonpayable",
      "type": "constructor"
    },
    {
      "anonymous": false,
      "inputs": [
        {
          "indexed": false,
          "internalType": "address",
          "name": "user",
          "type": "address"
        },
        {
          "indexed": false,
          "internalType": "uint256",
          "name": "amount",
          "type": "uint256"
        },
        {
          "indexed": false,
          "internalType": "uint256",
          "name": "nonce",
          "type": "uint256"
        },
        {
          "indexed": false,
          "internalType": "bytes",
          "name": "signature",
          "type": "bytes"
        },
        {
          "indexed": false,
          "internalType": "string",
          "name": "sourceChain",
          "type": "string"
        },
        {
          "indexed": false,
          "internalType": "string",
          "name": "destinationChain",
          "type": "string"
        }
      ],
      "name": "DepositSuccess",
      "type": "event"
    },
    {
      "anonymous": false,
      "inputs": [
        {
          "indexed": false,
          "internalType": "address",
          "name": "user",
          "type": "address"
        },
        {
          "indexed": false,
          "internalType": "uint256",
          "name": "amount",
          "type": "uint256"
        },
        {
          "indexed": false,
          "internalType": "uint256",
          "name": "nonce",
          "type": "uint256"
        },
        {
          "indexed": false,
          "internalType": "bytes",
          "name": "signature",
          "type": "bytes"
        },
        {
          "indexed": false,
          "internalType": "string",
          "name": "sourceChain",
          "type": "string"
        },
        {
          "indexed": false,
          "internalType": "string",
          "name": "destinationChain",
          "type": "string"
        }
      ],
      "name": "WithdrawSuccess",
      "type": "event"
    },
    {
      "inputs": [
        {
          "internalType": "address",
          "name": "user",
          "type": "address"
        },
        {
          "internalType": "uint256",
          "name": "amount",
          "type": "uint256"
        },
        {
          "internalType": "uint256",
          "name": "nonce",
          "type": "uint256"
        },
        {
          "internalType": "bytes",
          "name": "signature",
          "type": "bytes"
        },
        {
          "internalType": "string",
          "name": "sourceChain",
          "type": "string"
        },
        {
          "internalType": "string",
          "name": "destinationChain",
          "type": "string"
        }
      ],
      "name": "swap",
      "outputs": [],
      "stateMutability": "nonpayable",
      "type": "function"
    },
    {
      "inputs": [
        {
          "internalType": "address",
          "name": "user",
          "type": "address"
        },
        {
          "internalType": "uint256",
          "name": "amount",
          "type": "uint256"
        },
        {
          "internalType": "uint256",
          "name": "nonce",
          "type": "uint256"
        },
        {
          "internalType": "bytes",
          "name": "signature",
          "type": "bytes"
        },
        {
          "internalType": "string",
          "name": "sourceChain",
          "type": "string"
        },
        {
          "internalType": "string",
          "name": "destinationChain",
          "type": "string"
        }
      ],
      "name": "withdraw",
      "outputs": [],
      "stateMutability": "nonpayable",
      "type": "function"
    }
  ],
  "bytecode": "0x60806040523480156200001157600080fd5b50604051620011bd380380620011bd8339818101604052810190620000379190620000e8565b806000806101000a81548173ffffffffffffffffffffffffffffffffffffffff021916908373ffffffffffffffffffffffffffffffffffffffff160217905550506200011a565b600080fd5b600073ffffffffffffffffffffffffffffffffffffffff82169050919050565b6000620000b08262000083565b9050919050565b620000c281620000a3565b8114620000ce57600080fd5b50565b600081519050620000e281620000b7565b92915050565b6000602082840312156200010157620001006200007e565b5b60006200011184828501620000d1565b91505092915050565b611093806200012a6000396000f3fe608060405234801561001057600080fd5b50600436106100365760003560e01c806384e6069a1461003b578063d3752afb14610057575b600080fd5b61005560048036038101906100509190610914565b610073565b005b610071600480360381019061006c9190610914565b6102ea565b005b60006100a887878760405160200161008d93929190610a5e565b6040516020818303038152906040528051906020012061059d565b90508673ffffffffffffffffffffffffffffffffffffffff166100cb82866105cd565b73ffffffffffffffffffffffffffffffffffffffff1614610121576040517f08c379a000000000000000000000000000000000000000000000000000000000815260040161011890610b1e565b60405180910390fd5b8560008054906101000a900473ffffffffffffffffffffffffffffffffffffffff1673ffffffffffffffffffffffffffffffffffffffff1663dd62ed3e33306040518363ffffffff1660e01b815260040161017d929190610b4d565b602060405180830381865afa15801561019a573d6000803e3d6000fd5b505050506040513d601f19601f820116820180604052508101906101be9190610b8b565b10156101ff576040517f08c379a00000000000000000000000000000000000000000000000000000000081526004016101f690610c2a565b60405180910390fd5b60008054906101000a900473ffffffffffffffffffffffffffffffffffffffff1673ffffffffffffffffffffffffffffffffffffffff166323b872dd8830896040518463ffffffff1660e01b815260040161025c93929190610c59565b6020604051808303816000875af115801561027b573d6000803e3d6000fd5b505050506040513d601f19601f8201168201806040525081019061029f9190610cc8565b507fd1cba82d921e87a7d91ad09bc181b278d0b2de7388c131164a9609dcabfa187a8787878787876040516102d996959493929190610dc1565b60405180910390a150505050505050565b600061031f87878760405160200161030493929190610a5e565b6040516020818303038152906040528051906020012061059d565b90508673ffffffffffffffffffffffffffffffffffffffff1661034282866105cd565b73ffffffffffffffffffffffffffffffffffffffff1614610398576040517f08c379a000000000000000000000000000000000000000000000000000000000815260040161038f90610b1e565b60405180910390fd5b600160008873ffffffffffffffffffffffffffffffffffffffff1673ffffffffffffffffffffffffffffffffffffffff168152602001908152602001600020846040516103e59190610e73565b908152602001604051809103902060009054906101000a900460ff1615610441576040517f08c379a000000000000000000000000000000000000000000000000000000000815260040161043890610efc565b60405180910390fd5b60008054906101000a900473ffffffffffffffffffffffffffffffffffffffff1673ffffffffffffffffffffffffffffffffffffffff1663a9059cbb88886040518363ffffffff1660e01b815260040161049c929190610f1c565b6020604051808303816000875af11580156104bb573d6000803e3d6000fd5b505050506040513d601f19601f820116820180604052508101906104df9190610cc8565b5060018060008973ffffffffffffffffffffffffffffffffffffffff1673ffffffffffffffffffffffffffffffffffffffff1681526020019081526020016000208560405161052e9190610e73565b908152602001604051809103902060006101000a81548160ff0219169083151502179055507fbb8d05d2a0bb526250a8567c0cfd4bd33c68de8d0e69af49ed6d45a2b4a9928487878787878760405161058c96959493929190610dc1565b60405180910390a150505050505050565b6000816040516020016105b09190610fc7565b604051602081830303815290604052805190602001209050919050565b6000806000806105dc85610642565b8093508194508295505050506001868484846040516000815260200160405260405161060b9493929190611018565b6020604051602081039080840390855afa15801561062d573d6000803e3d6000fd5b50505060206040510351935050505092915050565b6000806000604184511461065557600080fd5b60008060006020870151925060408701519150606087015160001a90508083839550955095505050509193909250565b6000604051905090565b600080fd5b600080fd5b600073ffffffffffffffffffffffffffffffffffffffff82169050919050565b60006106c482610699565b9050919050565b6106d4816106b9565b81146106df57600080fd5b50565b6000813590506106f1816106cb565b92915050565b6000819050919050565b61070a816106f7565b811461071557600080fd5b50565b60008135905061072781610701565b92915050565b600080fd5b600080fd5b6000601f19601f8301169050919050565b7f4e487b7100000000000000000000000000000000000000000000000000000000600052604160045260246000fd5b61078082610737565b810181811067ffffffffffffffff8211171561079f5761079e610748565b5b80604052505050565b60006107b2610685565b90506107be8282610777565b919050565b600067ffffffffffffffff8211156107de576107dd610748565b5b6107e782610737565b9050602081019050919050565b82818337600083830152505050565b6000610816610811846107c3565b6107a8565b90508281526020810184848401111561083257610831610732565b5b61083d8482856107f4565b509392505050565b600082601f83011261085a5761085961072d565b5b813561086a848260208601610803565b91505092915050565b600067ffffffffffffffff82111561088e5761088d610748565b5b61089782610737565b9050602081019050919050565b60006108b76108b284610873565b6107a8565b9050828152602081018484840111156108d3576108d2610732565b5b6108de8482856107f4565b509392505050565b600082601f8301126108fb576108fa61072d565b5b813561090b8482602086016108a4565b91505092915050565b60008060008060008060c087890312156109315761093061068f565b5b600061093f89828a016106e2565b965050602061095089828a01610718565b955050604061096189828a01610718565b945050606087013567ffffffffffffffff81111561098257610981610694565b5b61098e89828a01610845565b935050608087013567ffffffffffffffff8111156109af576109ae610694565b5b6109bb89828a016108e6565b92505060a087013567ffffffffffffffff8111156109dc576109db610694565b5b6109e889828a016108e6565b9150509295509295509295565b60008160601b9050919050565b6000610a0d826109f5565b9050919050565b6000610a1f82610a02565b9050919050565b610a37610a32826106b9565b610a14565b82525050565b6000819050919050565b610a58610a53826106f7565b610a3d565b82525050565b6000610a6a8286610a26565b601482019150610a7a8285610a47565b602082019150610a8a8284610a47565b602082019150819050949350505050565b600082825260208201905092915050565b7f5369676e6174757265204572726f723a204e6f74205369676e6564206279207460008201527f68652050726f706f736572000000000000000000000000000000000000000000602082015250565b6000610b08602b83610a9b565b9150610b1382610aac565b604082019050919050565b60006020820190508181036000830152610b3781610afb565b9050919050565b610b47816106b9565b82525050565b6000604082019050610b626000830185610b3e565b610b6f6020830184610b3e565b9392505050565b600081519050610b8581610701565b92915050565b600060208284031215610ba157610ba061068f565b5b6000610baf84828501610b76565b91505092915050565b7f496e73756666696369656e7420416c6c6f77616e636520746f20636f6e74726160008201527f6374000000000000000000000000000000000000000000000000000000000000602082015250565b6000610c14602283610a9b565b9150610c1f82610bb8565b604082019050919050565b60006020820190508181036000830152610c4381610c07565b9050919050565b610c53816106f7565b82525050565b6000606082019050610c6e6000830186610b3e565b610c7b6020830185610b3e565b610c886040830184610c4a565b949350505050565b60008115159050919050565b610ca581610c90565b8114610cb057600080fd5b50565b600081519050610cc281610c9c565b92915050565b600060208284031215610cde57610cdd61068f565b5b6000610cec84828501610cb3565b91505092915050565b600081519050919050565b600082825260208201905092915050565b60005b83811015610d2f578082015181840152602081019050610d14565b83811115610d3e576000848401525b50505050565b6000610d4f82610cf5565b610d598185610d00565b9350610d69818560208601610d11565b610d7281610737565b840191505092915050565b600081519050919050565b6000610d9382610d7d565b610d9d8185610a9b565b9350610dad818560208601610d11565b610db681610737565b840191505092915050565b600060c082019050610dd66000830189610b3e565b610de36020830188610c4a565b610df06040830187610c4a565b8181036060830152610e028186610d44565b90508181036080830152610e168185610d88565b905081810360a0830152610e2a8184610d88565b9050979650505050505050565b600081905092915050565b6000610e4d82610cf5565b610e578185610e37565b9350610e67818560208601610d11565b80840191505092915050565b6000610e7f8284610e42565b915081905092915050565b7f5472616e73616374696f6e2068617320616c7265616479206265656e2070726f60008201527f6365737365642100000000000000000000000000000000000000000000000000602082015250565b6000610ee6602783610a9b565b9150610ef182610e8a565b604082019050919050565b60006020820190508181036000830152610f1581610ed9565b9050919050565b6000604082019050610f316000830185610b3e565b610f3e6020830184610c4a565b9392505050565b600081905092915050565b7f19457468657265756d205369676e6564204d6573736167653a0a333200000000600082015250565b6000610f86601c83610f45565b9150610f9182610f50565b601c82019050919050565b6000819050919050565b6000819050919050565b610fc1610fbc82610f9c565b610fa6565b82525050565b6000610fd282610f79565b9150610fde8284610fb0565b60208201915081905092915050565b610ff681610f9c565b82525050565b600060ff82169050919050565b61101281610ffc565b82525050565b600060808201905061102d6000830187610fed565b61103a6020830186611009565b6110476040830185610fed565b6110546060830184610fed565b9594505050505056fea2646970667358221220ab612f8cfdd83d5e877b3552d2e39f5543ba3cf21271aab52980d938ccbd5be864736f6c634300080d0033",
  "immutableReferences": {},
  "source": "pragma solidity ^0.8.7;\n\nimport \"@openzeppelin/contracts/token/ERC20/IERC20.sol\";\n\ncontract SwapBridgeBase {\n    IERC20 token;\n    mapping(address => mapping(bytes => bool)) processedUserSignatures;\n\n    constructor(address _token) {\n        token = IERC20(_token);\n    }\n\n    event DepositSuccess(\n        address user,\n        uint amount,\n        uint nonce,\n        bytes signature,\n        string sourceChain,\n        string destinationChain\n    );\n    event WithdrawSuccess(\n        address user,\n        uint amount,\n        uint nonce,\n        bytes signature,\n        string sourceChain,\n        string destinationChain\n    );\n\n    function swap(\n        address user,\n        uint amount,\n        uint nonce,\n        bytes memory signature,\n        string memory sourceChain,\n        string memory destinationChain\n    ) public {\n        bytes32 message = prefixed(\n            keccak256(abi.encodePacked(user, amount, nonce))\n        );\n        require(\n            recoverSigner(message, signature) == user,\n            \"Signature Error: Not Signed by the Proposer\"\n        );\n\n        require(\n            token.allowance(msg.sender, address(this)) >= amount,\n            \"Insufficient Allowance to contract\"\n        );\n        // take tokens in from user\n        token.transferFrom(user, address(this), amount);\n\n        emit DepositSuccess(\n            user,\n            amount,\n            nonce,\n            signature,\n            sourceChain,\n            destinationChain\n        );\n    }\n\n    function withdraw(\n        address user,\n        uint amount,\n        uint nonce,\n        bytes memory signature,\n        string memory sourceChain,\n        string memory destinationChain\n    ) public {\n        // if the signature is valid\n        bytes32 message = prefixed(\n            keccak256(abi.encodePacked(user, amount, nonce))\n        );\n        require(\n            recoverSigner(message, signature) == user,\n            \"Signature Error: Not Signed by the Proposer\"\n        );\n        require(\n            !processedUserSignatures[user][signature],\n            \"Transaction has already been processed!\"\n        );\n        token.transfer(user, amount);\n        processedUserSignatures[user][signature] = true;\n\n        emit WithdrawSuccess(\n            user,\n            amount,\n            nonce,\n            signature,\n            sourceChain,\n            destinationChain\n        );\n    }\n\n    /** Signature Verification Utilities */\n\n    function prefixed(bytes32 hash) internal pure returns (bytes32) {\n        return\n            keccak256(\n                abi.encodePacked(\"\\x19Ethereum Signed Message:\\n32\", hash)\n            );\n    }\n\n    function recoverSigner(\n        bytes32 message,\n        bytes memory sig\n    ) internal pure returns (address) {\n        uint8 v;\n        bytes32 r;\n        bytes32 s;\n\n        (v, r, s) = splitSignature(sig);\n\n        return ecrecover(message, v, r, s);\n    }\n\n    function splitSignature(\n        bytes memory sig\n    ) internal pure returns (uint8, bytes32, bytes32) {\n        require(sig.length == 65);\n\n        bytes32 r;\n        bytes32 s;\n        uint8 v;\n\n        assembly {\n            // first 32 bytes, after the length prefix\n            r := mload(add(sig, 32))\n            // second 32 bytes\n            s := mload(add(sig, 64))\n            // final byte (first byte of the next 32 bytes)\n            v := byte(0, mload(add(sig, 96)))\n        }\n\n        return (v, r, s);\n    }\n}\n",
  "sourcePath": "D:\\DeFi\\AnyChainSwap\\contracts\\BridgeBase.sol",
  "compiler": {
    "name": "solc",
    "version": "0.8.13+commit.abaa5c0e.Emscripten.clang"
  },
  "schemaVersion": "3.4.11",
  "updatedAt": "2023-02-13T04:22:50.702Z",
  "devdoc": {
    "kind": "dev",
    "methods": {},
    "version": 1
  },
  "userdoc": {
    "kind": "user",
    "methods": {},
    "version": 1
  }
}