{
  "contractName": "SwapBridgeBase",
  "abi": [
    {
      "inputs": [
        {
          "internalType": "address",
          "name": "_token",
          "type": "address"
        }
      ],
      "stateMutability": "nonpayable",
      "type": "constructor"
    },
    {
      "anonymous": false,
      "inputs": [
        {
          "indexed": false,
          "internalType": "address",
          "name": "user",
          "type": "address"
        },
        {
          "indexed": false,
          "internalType": "uint256",
          "name": "amount",
          "type": "uint256"
        },
        {
          "indexed": false,
          "internalType": "uint256",
          "name": "nonce",
          "type": "uint256"
        },
        {
          "indexed": false,
          "internalType": "bytes",
          "name": "signature",
          "type": "bytes"
        }
      ],
      "name": "DepositSuccess",
      "type": "event"
    },
    {
      "anonymous": false,
      "inputs": [
        {
          "indexed": false,
          "internalType": "address",
          "name": "user",
          "type": "address"
        },
        {
          "indexed": false,
          "internalType": "uint256",
          "name": "amount",
          "type": "uint256"
        },
        {
          "indexed": false,
          "internalType": "uint256",
          "name": "nonce",
          "type": "uint256"
        },
        {
          "indexed": false,
          "internalType": "bytes",
          "name": "signature",
          "type": "bytes"
        }
      ],
      "name": "WithdrawSuccess",
      "type": "event"
    },
    {
      "inputs": [
        {
          "internalType": "address",
          "name": "user",
          "type": "address"
        },
        {
          "internalType": "uint256",
          "name": "amount",
          "type": "uint256"
        },
        {
          "internalType": "uint256",
          "name": "nonce",
          "type": "uint256"
        },
        {
          "internalType": "bytes",
          "name": "signature",
          "type": "bytes"
        }
      ],
      "name": "swap",
      "outputs": [],
      "stateMutability": "nonpayable",
      "type": "function"
    },
    {
      "inputs": [
        {
          "internalType": "address",
          "name": "user",
          "type": "address"
        },
        {
          "internalType": "uint256",
          "name": "amount",
          "type": "uint256"
        },
        {
          "internalType": "uint256",
          "name": "nonce",
          "type": "uint256"
        },
        {
          "internalType": "bytes",
          "name": "signature",
          "type": "bytes"
        }
      ],
      "name": "withdraw",
      "outputs": [],
      "stateMutability": "nonpayable",
      "type": "function"
    }
  ],
  "bytecode": "0x608060405234801561001057600080fd5b506040516200100d3803806200100d833981810160405281019061003491906100dd565b806000806101000a81548173ffffffffffffffffffffffffffffffffffffffff021916908373ffffffffffffffffffffffffffffffffffffffff1602179055505061010a565b600080fd5b600073ffffffffffffffffffffffffffffffffffffffff82169050919050565b60006100aa8261007f565b9050919050565b6100ba8161009f565b81146100c557600080fd5b50565b6000815190506100d7816100b1565b92915050565b6000602082840312156100f3576100f261007a565b5b6000610101848285016100c8565b91505092915050565b610ef3806200011a6000396000f3fe608060405234801561001057600080fd5b50600436106100365760003560e01c80630bd0ca9a1461003b578063b691d78c14610057575b600080fd5b61005560048036038101906100509190610869565b610073565b005b610071600480360381019061006c9190610869565b610322565b005b60006100a885858560405160200161008d93929190610955565b60405160208183030381529060405280519060200120610593565b90508473ffffffffffffffffffffffffffffffffffffffff166100cb82846105c3565b73ffffffffffffffffffffffffffffffffffffffff1614610121576040517f08c379a000000000000000000000000000000000000000000000000000000000815260040161011890610a15565b60405180910390fd5b600160008673ffffffffffffffffffffffffffffffffffffffff1673ffffffffffffffffffffffffffffffffffffffff1681526020019081526020016000208260405161016e9190610aaf565b908152602001604051809103902060009054906101000a900460ff16156101ca576040517f08c379a00000000000000000000000000000000000000000000000000000000081526004016101c190610b38565b60405180910390fd5b60008054906101000a900473ffffffffffffffffffffffffffffffffffffffff1673ffffffffffffffffffffffffffffffffffffffff166323b872dd3087876040518463ffffffff1660e01b815260040161022793929190610b76565b6020604051808303816000875af1158015610246573d6000803e3d6000fd5b505050506040513d601f19601f8201168201806040525081019061026a9190610be5565b5060018060008773ffffffffffffffffffffffffffffffffffffffff1673ffffffffffffffffffffffffffffffffffffffff168152602001908152602001600020836040516102b99190610aaf565b908152602001604051809103902060006101000a81548160ff0219169083151502179055507fcf480abf6f6420171fe9cb499f5bc8bc5be4a12833be18482fb10702d0d52bc8858585856040516103139493929190610c5c565b60405180910390a15050505050565b600061035785858560405160200161033c93929190610955565b60405160208183030381529060405280519060200120610593565b90508473ffffffffffffffffffffffffffffffffffffffff1661037a82846105c3565b73ffffffffffffffffffffffffffffffffffffffff16146103d0576040517f08c379a00000000000000000000000000000000000000000000000000000000081526004016103c790610a15565b60405180910390fd5b8360008054906101000a900473ffffffffffffffffffffffffffffffffffffffff1673ffffffffffffffffffffffffffffffffffffffff1663dd62ed3e33306040518363ffffffff1660e01b815260040161042c929190610ca8565b602060405180830381865afa158015610449573d6000803e3d6000fd5b505050506040513d601f19601f8201168201806040525081019061046d9190610ce6565b10156104ae576040517f08c379a00000000000000000000000000000000000000000000000000000000081526004016104a590610d85565b60405180910390fd5b60008054906101000a900473ffffffffffffffffffffffffffffffffffffffff1673ffffffffffffffffffffffffffffffffffffffff166323b872dd8630876040518463ffffffff1660e01b815260040161050b93929190610b76565b6020604051808303816000875af115801561052a573d6000803e3d6000fd5b505050506040513d601f19601f8201168201806040525081019061054e9190610be5565b507f20187e3ef4e17f3b0493f63aa4d1d75dca71c1fc8c6419ce4a1e750ab9ad1e7f858585856040516105849493929190610c5c565b60405180910390a15050505050565b6000816040516020016105a69190610e27565b604051602081830303815290604052805190602001209050919050565b6000806000806105d285610638565b809350819450829550505050600186848484604051600081526020016040526040516106019493929190610e78565b6020604051602081039080840390855afa158015610623573d6000803e3d6000fd5b50505060206040510351935050505092915050565b6000806000604184511461064b57600080fd5b60008060006020870151925060408701519150606087015160001a90508083839550955095505050509193909250565b6000604051905090565b600080fd5b600080fd5b600073ffffffffffffffffffffffffffffffffffffffff82169050919050565b60006106ba8261068f565b9050919050565b6106ca816106af565b81146106d557600080fd5b50565b6000813590506106e7816106c1565b92915050565b6000819050919050565b610700816106ed565b811461070b57600080fd5b50565b60008135905061071d816106f7565b92915050565b600080fd5b600080fd5b6000601f19601f8301169050919050565b7f4e487b7100000000000000000000000000000000000000000000000000000000600052604160045260246000fd5b6107768261072d565b810181811067ffffffffffffffff821117156107955761079461073e565b5b80604052505050565b60006107a861067b565b90506107b4828261076d565b919050565b600067ffffffffffffffff8211156107d4576107d361073e565b5b6107dd8261072d565b9050602081019050919050565b82818337600083830152505050565b600061080c610807846107b9565b61079e565b90508281526020810184848401111561082857610827610728565b5b6108338482856107ea565b509392505050565b600082601f8301126108505761084f610723565b5b81356108608482602086016107f9565b91505092915050565b6000806000806080858703121561088357610882610685565b5b6000610891878288016106d8565b94505060206108a28782880161070e565b93505060406108b38782880161070e565b925050606085013567ffffffffffffffff8111156108d4576108d361068a565b5b6108e08782880161083b565b91505092959194509250565b60008160601b9050919050565b6000610904826108ec565b9050919050565b6000610916826108f9565b9050919050565b61092e610929826106af565b61090b565b82525050565b6000819050919050565b61094f61094a826106ed565b610934565b82525050565b6000610961828661091d565b601482019150610971828561093e565b602082019150610981828461093e565b602082019150819050949350505050565b600082825260208201905092915050565b7f5369676e6174757265204572726f723a204e6f74205369676e6564206279207460008201527f68652050726f706f736572000000000000000000000000000000000000000000602082015250565b60006109ff602b83610992565b9150610a0a826109a3565b604082019050919050565b60006020820190508181036000830152610a2e816109f2565b9050919050565b600081519050919050565b600081905092915050565b60005b83811015610a69578082015181840152602081019050610a4e565b83811115610a78576000848401525b50505050565b6000610a8982610a35565b610a938185610a40565b9350610aa3818560208601610a4b565b80840191505092915050565b6000610abb8284610a7e565b915081905092915050565b7f5472616e73616374696f6e2068617320616c7265616479206265656e2070726f60008201527f6365737365642100000000000000000000000000000000000000000000000000602082015250565b6000610b22602783610992565b9150610b2d82610ac6565b604082019050919050565b60006020820190508181036000830152610b5181610b15565b9050919050565b610b61816106af565b82525050565b610b70816106ed565b82525050565b6000606082019050610b8b6000830186610b58565b610b986020830185610b58565b610ba56040830184610b67565b949350505050565b60008115159050919050565b610bc281610bad565b8114610bcd57600080fd5b50565b600081519050610bdf81610bb9565b92915050565b600060208284031215610bfb57610bfa610685565b5b6000610c0984828501610bd0565b91505092915050565b600082825260208201905092915050565b6000610c2e82610a35565b610c388185610c12565b9350610c48818560208601610a4b565b610c518161072d565b840191505092915050565b6000608082019050610c716000830187610b58565b610c7e6020830186610b67565b610c8b6040830185610b67565b8181036060830152610c9d8184610c23565b905095945050505050565b6000604082019050610cbd6000830185610b58565b610cca6020830184610b58565b9392505050565b600081519050610ce0816106f7565b92915050565b600060208284031215610cfc57610cfb610685565b5b6000610d0a84828501610cd1565b91505092915050565b7f496e73756666696369656e7420416c6c6f77616e636520746f20636f6e74726160008201527f6374000000000000000000000000000000000000000000000000000000000000602082015250565b6000610d6f602283610992565b9150610d7a82610d13565b604082019050919050565b60006020820190508181036000830152610d9e81610d62565b9050919050565b600081905092915050565b7f19457468657265756d205369676e6564204d6573736167653a0a333200000000600082015250565b6000610de6601c83610da5565b9150610df182610db0565b601c82019050919050565b6000819050919050565b6000819050919050565b610e21610e1c82610dfc565b610e06565b82525050565b6000610e3282610dd9565b9150610e3e8284610e10565b60208201915081905092915050565b610e5681610dfc565b82525050565b600060ff82169050919050565b610e7281610e5c565b82525050565b6000608082019050610e8d6000830187610e4d565b610e9a6020830186610e69565b610ea76040830185610e4d565b610eb46060830184610e4d565b9594505050505056fea264697066735822122060b39e42c34732c93c0dce8ef3411e7f45ac430e8a09d42267e9882e3ec4745f64736f6c634300080d0033",
  "immutableReferences": {},
  "source": "pragma solidity ^0.8.7;\n\nimport \"@openzeppelin/contracts/token/ERC20/IERC20.sol\";\n\ncontract SwapBridgeBase {\n    IERC20 token;\n    mapping(address => mapping(bytes => bool)) processedUserSignatures;\n\n    constructor(address _token) {\n        token = IERC20(_token);\n    }\n\n    event DepositSuccess(\n        address user,\n        uint amount,\n        uint nonce,\n        bytes signature\n    );\n    event WithdrawSuccess(\n        address user,\n        uint amount,\n        uint nonce,\n        bytes signature\n    );\n\n    function swap(\n        address user,\n        uint amount,\n        uint nonce,\n        bytes memory signature\n    ) public {\n        bytes32 message = prefixed(\n            keccak256(abi.encodePacked(user, amount, nonce))\n        );\n        require(\n            recoverSigner(message, signature) == user,\n            \"Signature Error: Not Signed by the Proposer\"\n        );\n\n        require(\n            token.allowance(msg.sender, address(this)) >= amount,\n            \"Insufficient Allowance to contract\"\n        );\n        // take tokens in from user\n        token.transferFrom(user, address(this), amount);\n\n        emit DepositSuccess(user, amount, nonce, signature);\n    }\n\n    function withdraw(\n        address user,\n        uint amount,\n        uint nonce,\n        bytes memory signature\n    ) public {\n        // if the signature is valid\n        bytes32 message = prefixed(\n            keccak256(abi.encodePacked(user, amount, nonce))\n        );\n        require(\n            recoverSigner(message, signature) == user,\n            \"Signature Error: Not Signed by the Proposer\"\n        );\n        require(\n            !processedUserSignatures[user][signature],\n            \"Transaction has already been processed!\"\n        );\n        token.transferFrom(address(this), user, amount);\n        processedUserSignatures[user][signature] = true;\n\n        emit WithdrawSuccess(user, amount, nonce, signature);\n    }\n\n    /** Signature Verification Utilities */\n\n    function prefixed(bytes32 hash) internal pure returns (bytes32) {\n        return\n            keccak256(\n                abi.encodePacked(\"\\x19Ethereum Signed Message:\\n32\", hash)\n            );\n    }\n\n    function recoverSigner(\n        bytes32 message,\n        bytes memory sig\n    ) internal pure returns (address) {\n        uint8 v;\n        bytes32 r;\n        bytes32 s;\n\n        (v, r, s) = splitSignature(sig);\n\n        return ecrecover(message, v, r, s);\n    }\n\n    function splitSignature(\n        bytes memory sig\n    ) internal pure returns (uint8, bytes32, bytes32) {\n        require(sig.length == 65);\n\n        bytes32 r;\n        bytes32 s;\n        uint8 v;\n\n        assembly {\n            // first 32 bytes, after the length prefix\n            r := mload(add(sig, 32))\n            // second 32 bytes\n            s := mload(add(sig, 64))\n            // final byte (first byte of the next 32 bytes)\n            v := byte(0, mload(add(sig, 96)))\n        }\n\n        return (v, r, s);\n    }\n}\n",
  "sourcePath": "D:\\DeFi\\Swap_Bridge\\contracts\\BridgeBase.sol",
  "compiler": {
    "name": "solc",
    "version": "0.8.13+commit.abaa5c0e.Emscripten.clang"
  },
  "schemaVersion": "3.4.11",
  "updatedAt": "2023-02-08T13:20:07.910Z",
  "devdoc": {
    "kind": "dev",
    "methods": {},
    "version": 1
  },
  "userdoc": {
    "kind": "user",
    "methods": {},
    "version": 1
  }
}